{
  "contractName": "Flip",
  "abi": [
    {
      "inputs": [],
      "stateMutability": "nonpayable",
      "type": "constructor"
    },
    {
      "anonymous": false,
      "inputs": [
        {
          "indexed": false,
          "internalType": "string",
          "name": "description",
          "type": "string"
        },
        {
          "indexed": false,
          "internalType": "bytes32",
          "name": "id",
          "type": "bytes32"
        }
      ],
      "name": "LogNewProvableQuery",
      "type": "event"
    },
    {
      "anonymous": false,
      "inputs": [
        {
          "indexed": false,
          "internalType": "string",
          "name": "message",
          "type": "string"
        },
        {
          "indexed": false,
          "internalType": "address",
          "name": "id",
          "type": "address"
        }
      ],
      "name": "generatedRandomNumber",
      "type": "event"
    },
    {
      "inputs": [],
      "name": "owner",
      "outputs": [
        {
          "internalType": "address",
          "name": "",
          "type": "address"
        }
      ],
      "stateMutability": "view",
      "type": "function",
      "constant": true
    },
    {
      "inputs": [
        {
          "internalType": "address",
          "name": "",
          "type": "address"
        }
      ],
      "name": "players",
      "outputs": [
        {
          "internalType": "address",
          "name": "playerAddress",
          "type": "address"
        },
        {
          "internalType": "bytes32",
          "name": "id",
          "type": "bytes32"
        },
        {
          "internalType": "uint256",
          "name": "balance",
          "type": "uint256"
        },
        {
          "internalType": "uint256",
          "name": "number",
          "type": "uint256"
        },
        {
          "internalType": "bool",
          "name": "isPlaying",
          "type": "bool"
        }
      ],
      "stateMutability": "view",
      "type": "function",
      "constant": true
    },
    {
      "inputs": [],
      "name": "randomResult",
      "outputs": [
        {
          "internalType": "uint256",
          "name": "",
          "type": "uint256"
        }
      ],
      "stateMutability": "view",
      "type": "function",
      "constant": true
    },
    {
      "inputs": [
        {
          "internalType": "bytes32",
          "name": "requestId",
          "type": "bytes32"
        },
        {
          "internalType": "uint256",
          "name": "randomness",
          "type": "uint256"
        }
      ],
      "name": "rawFulfillRandomness",
      "outputs": [],
      "stateMutability": "nonpayable",
      "type": "function"
    },
    {
      "inputs": [],
      "name": "sender",
      "outputs": [
        {
          "internalType": "address",
          "name": "",
          "type": "address"
        }
      ],
      "stateMutability": "view",
      "type": "function",
      "constant": true
    },
    {
      "inputs": [
        {
          "internalType": "address",
          "name": "id",
          "type": "address"
        }
      ],
      "name": "findPlayer",
      "outputs": [
        {
          "components": [
            {
              "internalType": "address",
              "name": "playerAddress",
              "type": "address"
            },
            {
              "internalType": "bytes32",
              "name": "id",
              "type": "bytes32"
            },
            {
              "internalType": "uint256",
              "name": "balance",
              "type": "uint256"
            },
            {
              "internalType": "uint256",
              "name": "number",
              "type": "uint256"
            },
            {
              "internalType": "bool",
              "name": "isPlaying",
              "type": "bool"
            }
          ],
          "internalType": "struct Flip.player",
          "name": "",
          "type": "tuple"
        }
      ],
      "stateMutability": "view",
      "type": "function",
      "constant": true
    },
    {
      "inputs": [
        {
          "internalType": "uint256",
          "name": "userProvidedSeed",
          "type": "uint256"
        }
      ],
      "name": "getRandomNumber",
      "outputs": [
        {
          "internalType": "bytes32",
          "name": "requestId",
          "type": "bytes32"
        }
      ],
      "stateMutability": "nonpayable",
      "type": "function"
    },
    {
      "inputs": [],
      "name": "receiveEther",
      "outputs": [],
      "stateMutability": "payable",
      "type": "function",
      "payable": true
    },
    {
      "inputs": [
        {
          "internalType": "address",
          "name": "id",
          "type": "address"
        }
      ],
      "name": "withdrawAll",
      "outputs": [
        {
          "components": [
            {
              "internalType": "address",
              "name": "playerAddress",
              "type": "address"
            },
            {
              "internalType": "bytes32",
              "name": "id",
              "type": "bytes32"
            },
            {
              "internalType": "uint256",
              "name": "balance",
              "type": "uint256"
            },
            {
              "internalType": "uint256",
              "name": "number",
              "type": "uint256"
            },
            {
              "internalType": "bool",
              "name": "isPlaying",
              "type": "bool"
            }
          ],
          "internalType": "struct Flip.player",
          "name": "",
          "type": "tuple"
        }
      ],
      "stateMutability": "nonpayable",
      "type": "function"
    },
    {
      "inputs": [
        {
          "internalType": "bool",
          "name": "winloss",
          "type": "bool"
        },
        {
          "internalType": "address",
          "name": "id",
          "type": "address"
        }
      ],
      "name": "winLose",
      "outputs": [
        {
          "internalType": "uint256",
          "name": "",
          "type": "uint256"
        }
      ],
      "stateMutability": "nonpayable",
      "type": "function"
    }
  ],
  "bytecode": "0x60c06040524460025534801561001457600080fd5b5073dd3782915140c8f3b190b5d67eac6dc5760c46e973a36085f69e2889c224210f603d836748e7dc0088336000806101000a81548173ffffffffffffffffffffffffffffffffffffffff021916908373ffffffffffffffffffffffffffffffffffffffff1602179055508173ffffffffffffffffffffffffffffffffffffffff1660a08173ffffffffffffffffffffffffffffffffffffffff1660601b815250508073ffffffffffffffffffffffffffffffffffffffff1660808173ffffffffffffffffffffffffffffffffffffffff1660601b8152505050507f6c3699283bda56ad74f6b855546325b68d482e983852a7a82979cc4807b641f460001b60058190555067016345785d8a000060068190555060805160601c60a05160601c61196f61015b600039806104205280610e2b5250806107d65280610def525061196f6000f3fe6080604052600436106100915760003560e01c8063a3912ec811610059578063a3912ec81461017d578063a817f66814610187578063b37217a4146101c4578063e2eb41ff14610201578063fa09e6301461024257610091565b806342619f661461009657806354de69f8146100c157806367e404ce146100fe5780638da5cb5b1461012957806394985ddd14610154575b600080fd5b3480156100a257600080fd5b506100ab61027f565b6040516100b891906117eb565b60405180910390f35b3480156100cd57600080fd5b506100e860048036038101906100e39190611130565b610285565b6040516100f591906117eb565b60405180910390f35b34801561010a57600080fd5b506101136103d3565b604051610120919061159f565b60405180910390f35b34801561013557600080fd5b5061013e6103f9565b60405161014b919061159f565b60405180910390f35b34801561016057600080fd5b5061017b6004803603810190610176919061116c565b61041e565b005b6101856104ba565b005b34801561019357600080fd5b506101ae60048036038101906101a991906110de565b6106e7565b6040516101bb91906117d0565b60405180910390f35b3480156101d057600080fd5b506101eb60048036038101906101e691906111a8565b6107cf565b6040516101f8919061164b565b60405180910390f35b34801561020d57600080fd5b50610228600480360381019061022391906110de565b610a0a565b6040516102399594939291906115ba565b60405180910390f35b34801561024e57600080fd5b50610269600480360381019061026491906110de565b610a6d565b60405161027691906117d0565b60405180910390f35b60075481565b60008060011515841515141561033157600354600860008573ffffffffffffffffffffffffffffffffffffffff1673ffffffffffffffffffffffffffffffffffffffff16815260200190815260200160002060020160008282540192505081905550600860008473ffffffffffffffffffffffffffffffffffffffff1673ffffffffffffffffffffffffffffffffffffffff1681526020019081526020016000206002015490506103c9565b600354600860008573ffffffffffffffffffffffffffffffffffffffff1673ffffffffffffffffffffffffffffffffffffffff16815260200190815260200160002060020160008282540392505081905550600860008473ffffffffffffffffffffffffffffffffffffffff1673ffffffffffffffffffffffffffffffffffffffff1681526020019081526020016000206002015490505b8091505092915050565b600460009054906101000a900473ffffffffffffffffffffffffffffffffffffffff1681565b6000809054906101000a900473ffffffffffffffffffffffffffffffffffffffff1681565b7f000000000000000000000000000000000000000000000000000000000000000073ffffffffffffffffffffffffffffffffffffffff163373ffffffffffffffffffffffffffffffffffffffff16146104ac576040517f08c379a00000000000000000000000000000000000000000000000000000000081526004016104a3906117b0565b60405180910390fd5b6104b68282610c2c565b5050565b662386f26fc1000080341015610505576040517f08c379a00000000000000000000000000000000000000000000000000000000081526004016104fc90611790565b60405180910390fd5b34471015610548576040517f08c379a000000000000000000000000000000000000000000000000000000000815260040161053f906116d4565b60405180910390fd5b33600460006101000a81548173ffffffffffffffffffffffffffffffffffffffff021916908373ffffffffffffffffffffffffffffffffffffffff1602179055506040518060a00160405280600460009054906101000a900473ffffffffffffffffffffffffffffffffffffffff1673ffffffffffffffffffffffffffffffffffffffff1681526020016000801b8152602001348152602001600081526020016000151581525060086000600460009054906101000a900473ffffffffffffffffffffffffffffffffffffffff1673ffffffffffffffffffffffffffffffffffffffff1673ffffffffffffffffffffffffffffffffffffffff16815260200190815260200160002060008201518160000160006101000a81548173ffffffffffffffffffffffffffffffffffffffff021916908373ffffffffffffffffffffffffffffffffffffffff16021790555060208201518160010155604082015181600201556060820151816003015560808201518160040160006101000a81548160ff0219169083151502179055509050506106e36002546107cf565b5050565b6106ef611016565b600860008373ffffffffffffffffffffffffffffffffffffffff1673ffffffffffffffffffffffffffffffffffffffff1681526020019081526020016000206040518060a00160405290816000820160009054906101000a900473ffffffffffffffffffffffffffffffffffffffff1673ffffffffffffffffffffffffffffffffffffffff1673ffffffffffffffffffffffffffffffffffffffff1681526020016001820154815260200160028201548152602001600382015481526020016004820160009054906101000a900460ff1615151515815250509050919050565b60006006547f000000000000000000000000000000000000000000000000000000000000000073ffffffffffffffffffffffffffffffffffffffff166370a08231306040518263ffffffff1660e01b815260040161082d919061159f565b60206040518083038186803b15801561084557600080fd5b505afa158015610859573d6000803e3d6000fd5b505050506040513d601f19601f8201168201806040525081019061087d91906111d1565b10156108be576040517f08c379a00000000000000000000000000000000000000000000000000000000081526004016108b590611742565b60405180910390fd5b6000151560086000600460009054906101000a900473ffffffffffffffffffffffffffffffffffffffff1673ffffffffffffffffffffffffffffffffffffffff1673ffffffffffffffffffffffffffffffffffffffff16815260200190815260200160002060040160009054906101000a900460ff1615151461094057600080fd5b600160086000600460009054906101000a900473ffffffffffffffffffffffffffffffffffffffff1673ffffffffffffffffffffffffffffffffffffffff1673ffffffffffffffffffffffffffffffffffffffff16815260200190815260200160002060040160006101000a81548160ff0219169083151502179055507f03f87726502eec329641d0b704cac4f62e20440c8e341563a08a35b50dc0c20f816040516109ec9190611762565b60405180910390a1610a0360055460065484610deb565b9050919050565b60086020528060005260406000206000915090508060000160009054906101000a900473ffffffffffffffffffffffffffffffffffffffff16908060010154908060020154908060030154908060040160009054906101000a900460ff16905085565b610a75611016565b6000600860008473ffffffffffffffffffffffffffffffffffffffff1673ffffffffffffffffffffffffffffffffffffffff1681526020019081526020016000206002015490506000600860008573ffffffffffffffffffffffffffffffffffffffff1673ffffffffffffffffffffffffffffffffffffffff168152602001908152602001600020600201819055503373ffffffffffffffffffffffffffffffffffffffff166108fc829081150290604051600060405180830381858888f19350505050158015610b4a573d6000803e3d6000fd5b50600860008473ffffffffffffffffffffffffffffffffffffffff1673ffffffffffffffffffffffffffffffffffffffff1681526020019081526020016000206040518060a00160405290816000820160009054906101000a900473ffffffffffffffffffffffffffffffffffffffff1673ffffffffffffffffffffffffffffffffffffffff1673ffffffffffffffffffffffffffffffffffffffff1681526020016001820154815260200160028201548152602001600382015481526020016004820160009054906101000a900460ff161515151581525050915050919050565b60028181610c3657fe5b06600781905550600060086000600460009054906101000a900473ffffffffffffffffffffffffffffffffffffffff1673ffffffffffffffffffffffffffffffffffffffff1673ffffffffffffffffffffffffffffffffffffffff16815260200190815260200160002060040160006101000a81548160ff02191690831515021790555060075460086000600460009054906101000a900473ffffffffffffffffffffffffffffffffffffffff1673ffffffffffffffffffffffffffffffffffffffff1673ffffffffffffffffffffffffffffffffffffffff168152602001908152602001600020600301819055508160086000600460009054906101000a900473ffffffffffffffffffffffffffffffffffffffff1673ffffffffffffffffffffffffffffffffffffffff1673ffffffffffffffffffffffffffffffffffffffff168152602001908152602001600020600101819055507f4d54b5a94430e1ae81bf7b3ca4d2efeecfa6e6e4b8878a150b58ec1b002dd643600460009054906101000a900473ffffffffffffffffffffffffffffffffffffffff16604051610ddf9190611714565b60405180910390a15050565b60007f000000000000000000000000000000000000000000000000000000000000000073ffffffffffffffffffffffffffffffffffffffff16634000aea07f0000000000000000000000000000000000000000000000000000000000000000858786604051602001610e5e929190611666565b6040516020818303038152906040526040518463ffffffff1660e01b8152600401610e8b9392919061160d565b602060405180830381600087803b158015610ea557600080fd5b505af1158015610eb9573d6000803e3d6000fd5b505050506040513d601f19601f82011682018060405250810190610edd9190611107565b506000610eff858430600160008a815260200190815260200160002054610f52565b9050610f27600180600088815260200190815260200160002054610f8e90919063ffffffff16565b6001600087815260200190815260200160002081905550610f488582610fe3565b9150509392505050565b600084848484604051602001610f6b949392919061168f565b6040516020818303038152906040528051906020012060001c9050949350505050565b600080828401905083811015610fd9576040517f08c379a0000000000000000000000000000000000000000000000000000000008152600401610fd0906116f4565b60405180910390fd5b8091505092915050565b60008282604051602001610ff8929190611573565b60405160208183030381529060405280519060200120905092915050565b6040518060a00160405280600073ffffffffffffffffffffffffffffffffffffffff1681526020016000801916815260200160008152602001600081526020016000151581525090565b60008135905061106f816118dd565b92915050565b600081359050611084816118f4565b92915050565b600081519050611099816118f4565b92915050565b6000813590506110ae8161190b565b92915050565b6000813590506110c381611922565b92915050565b6000815190506110d881611922565b92915050565b6000602082840312156110f057600080fd5b60006110fe84828501611060565b91505092915050565b60006020828403121561111957600080fd5b60006111278482850161108a565b91505092915050565b6000806040838503121561114357600080fd5b600061115185828601611075565b925050602061116285828601611060565b9150509250929050565b6000806040838503121561117f57600080fd5b600061118d8582860161109f565b925050602061119e858286016110b4565b9150509250929050565b6000602082840312156111ba57600080fd5b60006111c8848285016110b4565b91505092915050565b6000602082840312156111e357600080fd5b60006111f1848285016110c9565b91505092915050565b61120381611833565b82525050565b61121281611833565b82525050565b61122181611845565b82525050565b61123081611845565b82525050565b61123f81611851565b82525050565b61124e81611851565b82525050565b61126561126082611851565b6118b8565b82525050565b600061127682611806565b6112808185611811565b9350611290818560208601611885565b611299816118cc565b840191505092915050565b60006112b1602183611822565b91507f54686520636f6e7472616374206861736e277420656e6f756768742066756e6460008301527f73000000000000000000000000000000000000000000000000000000000000006020830152604082019050919050565b6000611317601b83611822565b91507f536166654d6174683a206164646974696f6e206f766572666c6f7700000000006000830152602082019050919050565b6000611357601983611822565b91507f52414e444f4d204e554d4245522047454e4552415445443a20000000000000006000830152602082019050919050565b6000611397602b83611822565b91507f4e6f7420656e6f756768204c494e4b202d2066696c6c20636f6e74726163742060008301527f77697468206661756365740000000000000000000000000000000000000000006020830152604082019050919050565b60006113fd603f83611822565b91507f50726f7661626c65207175657279207761732073656e742c207374616e64696e60008301527f6720627920666f722074686520616e737765722e205155455259204944203a006020830152604082019050919050565b6000611463601d83611822565b91507f546865206d696e696d756d2062657420697320302e30312045746865720000006000830152602082019050919050565b60006114a3601f83611822565b91507f4f6e6c7920565246436f6f7264696e61746f722063616e2066756c66696c6c006000830152602082019050919050565b60a0820160008201516114ec60008501826111fa565b5060208201516114ff6020850182611236565b506040820151611512604085018261153e565b506060820151611525606085018261153e565b5060808201516115386080850182611218565b50505050565b6115478161187b565b82525050565b6115568161187b565b82525050565b61156d6115688261187b565b6118c2565b82525050565b600061157f8285611254565b60208201915061158f828461155c565b6020820191508190509392505050565b60006020820190506115b46000830184611209565b92915050565b600060a0820190506115cf6000830188611209565b6115dc6020830187611245565b6115e9604083018661154d565b6115f6606083018561154d565b6116036080830184611227565b9695505050505050565b60006060820190506116226000830186611209565b61162f602083018561154d565b8181036040830152611641818461126b565b9050949350505050565b60006020820190506116606000830184611245565b92915050565b600060408201905061167b6000830185611245565b611688602083018461154d565b9392505050565b60006080820190506116a46000830187611245565b6116b1602083018661154d565b6116be6040830185611209565b6116cb606083018461154d565b95945050505050565b600060208201905081810360008301526116ed816112a4565b9050919050565b6000602082019050818103600083015261170d8161130a565b9050919050565b6000604082019050818103600083015261172d8161134a565b905061173c6020830184611209565b92915050565b6000602082019050818103600083015261175b8161138a565b9050919050565b6000604082019050818103600083015261177b816113f0565b905061178a6020830184611245565b92915050565b600060208201905081810360008301526117a981611456565b9050919050565b600060208201905081810360008301526117c981611496565b9050919050565b600060a0820190506117e560008301846114d6565b92915050565b6000602082019050611800600083018461154d565b92915050565b600081519050919050565b600082825260208201905092915050565b600082825260208201905092915050565b600061183e8261185b565b9050919050565b60008115159050919050565b6000819050919050565b600073ffffffffffffffffffffffffffffffffffffffff82169050919050565b6000819050919050565b60005b838110156118a3578082015181840152602081019050611888565b838111156118b2576000848401525b50505050565b6000819050919050565b6000819050919050565b6000601f19601f8301169050919050565b6118e681611833565b81146118f157600080fd5b50565b6118fd81611845565b811461190857600080fd5b50565b61191481611851565b811461191f57600080fd5b50565b61192b8161187b565b811461193657600080fd5b5056fea2646970667358221220f825ee0903201dd59c575df54b4c23eb17bb2344d71083d7f06c8c41dd78bf2c64736f6c63430006060033",
  "immutableReferences": {
    "645": [
      {
        "length": 32,
        "start": 2006
      },
      {
        "length": 32,
        "start": 3567
      }
    ],
    "647": [
      {
        "length": 32,
        "start": 1056
      },
      {
        "length": 32,
        "start": 3627
      }
    ]
  },
  "source": "import \"./Ownable.sol\";\r\npragma solidity >= 0.6.6 < 0.7.0;\r\nimport \"./VRFConsumerBase.sol\";\r\npragma experimental ABIEncoderV2;\r\n\r\ncontract Flip is Ownable, VRFConsumerBase{\r\n\r\n    uint256 internal seed = block.difficulty;\r\n    uint private balance;\r\n    address public sender;\r\n    bytes32 internal keyHash;\r\n    uint256 internal fee;\r\n    uint256 public randomResult;\r\n\r\n    event LogNewProvableQuery(string description, bytes32 id);\r\n    event generatedRandomNumber(string message, address id);\r\n\r\n    mapping(address => player) public players;\r\n    //mapping (address => bool) public isPlaying;\r\n\r\n    struct player {\r\n        address playerAddress;\r\n        bytes32 id;\r\n        uint balance;\r\n        uint256 number;\r\n        bool isPlaying;\r\n    }\r\n\r\n    modifier costs(uint cost){\r\n        require(msg.value >= cost, \"The minimum bet is 0.01 Ether\");\r\n        _;\r\n    }\r\n\r\n        constructor()\r\n                    VRFConsumerBase(\r\n            0xdD3782915140c8f3b190B5D67eAc6dc5760C46E9, // VRF Coordinator\r\n            0xa36085F69e2889c224210F603D836748e7dC0088  // LINK Token\r\n        ) public {\r\n            keyHash = 0x6c3699283bda56ad74f6b855546325b68d482e983852a7a82979cc4807b641f4;\r\n            fee = 0.1 * 10 ** 18; // 0.1 LINK\r\n        }\r\n\r\n    function findPlayer(address id) public view returns (player memory){\r\n        return players[id];\r\n    }\r\n\r\n    function getRandomNumber(uint256 userProvidedSeed) public returns (bytes32 requestId) {\r\n        require(LINK.balanceOf(address(this)) >= fee, \"Not enough LINK - fill contract with faucet\");\r\n        require(players[sender].isPlaying==false);\r\n        players[sender].isPlaying = true;\r\n        emit LogNewProvableQuery(\"Provable query was sent, standing by for the answer. QUERY ID :\", requestId);\r\n        return requestRandomness(keyHash, fee, userProvidedSeed);\r\n    }\r\n\r\n    /**\r\n     * Callback function used by VRF Coordinator\r\n     */\r\n    function fulfillRandomness(bytes32 requestId, uint256 randomness) internal override {\r\n        randomResult = randomness % 2;\r\n        players[sender].isPlaying = false;\r\n        players[sender].number = randomResult;\r\n        players[sender].id = requestId;\r\n        emit generatedRandomNumber(\"RANDOM NUMBER GENERATED: \", sender);\r\n\r\n    }\r\n\r\n    function receiveEther() public payable costs(0.01 ether){\r\n        require(address(this).balance >= msg.value, \"The contract hasn't enought funds\");\r\n        sender = msg.sender;\r\n        players [sender] = player (\r\n          {\r\n            playerAddress:sender,\r\n            id:0,\r\n            balance:msg.value,\r\n            number:0,\r\n            isPlaying:false\r\n          }\r\n        );\r\n        getRandomNumber(seed);\r\n    }\r\n\r\n   function withdrawAll(address id) public returns(player memory) {\r\n       uint toTransfer = players[id].balance;\r\n       players[id].balance = 0;\r\n       msg.sender.transfer(toTransfer);\r\n       return players[id];\r\n    }\r\n\r\n   function winLose(bool winloss, address id) public returns(uint){\r\n\r\n     uint playersBalance;\r\n\r\n      if (winloss == true){\r\n        players[id].balance += balance;\r\n        playersBalance = players[id].balance;\r\n      }\r\n      else{\r\n        players[id].balance -= balance;\r\n        playersBalance = players[id].balance;\r\n      }\r\n\r\n      return playersBalance;\r\n   }\r\n\r\n\r\n\r\n}\r\n",
  "sourcePath": "C:/Users/claud/Desktop/IVANONTECH/PROJECT1/FlipDapp/contracts/Flip.sol",
  "compiler": {
    "name": "solc",
    "version": "0.6.6+commit.6c089d02.Emscripten.clang"
  },
  "schemaVersion": "3.4.0",
  "updatedAt": "2021-05-13T01:23:47.562Z",
  "networkType": "ethereum",
  "devdoc": {
    "methods": {}
  },
  "userdoc": {
    "methods": {}
  }
}